:100000000C9460000C947D000C947D000C947D0099
:100010000C947D000C947D000C947D000C947D006C
:100020000C947D000C947D000C9423020C94FE0132
:100030000C947D000C947D000C947D000C947D004C
:100040000C947D000C947D000C947D000C947D003C
:100050000C947D00810286028B02900295029A0226
:100060009F02A402CF02D402D902DE02E302E80218
:10007000ED02F2021D03260330033B034603500347
:100080005B03660397039A039E03A303A803AC03D1
:10009000B103B6031006150618061B061E06210638
:1000A00024063F075207650778078B079E07B107AD
:1000B000C407D707EA07FD071008230836084908D0
:1000C00011241FBECFE5D8E0DEBFCDBF10E0A0E613
:1000D000B0E0E0E4F7E102C005900D92A43BB10767
:1000E000D9F720E0A4EBB0E001C01D92A53CB20717
:1000F000E1F70E94AD040C949E0B0C94000086B1B5
:10010000806886B986B1876086B987B1806C87B907
:1001100008958F7197B1907E892B87B986B18F7EB4
:1001200086B986B1806486B9349BFECF24B185B18F
:1001300090E0982F8827822B0895CF93DF9300D0EB
:100140001F92CDB7DEB761E08AE10E945D0261E0F7
:100150008BE10E945D0261E08FE10E945D0283E01D
:10016000898392E09A838B83CE0101960E94FB08DB
:100170000F900F900F90DF91CF910895CF93C82FDC
:1001800060E08BE10E94AB0261E08AE10E94AB0279
:100190006C2F70E080E090E00E942C0A0E94080919
:1001A000CF91089561E08BE10E94AB0261E08AE1AA
:1001B0000E94AB020895CF93DF9300D01F92CDB77A
:1001C000DEB719821A8283E08B83CE0101960E94EA
:1001D000F50689B7816089BF89B7826089BF789445
:1001E0000F900F900F90DF91CF910895CF92DF92F3
:1001F000EF92FF921092BD001092BE001092BF00CD
:100200001092C0001092B8001092B9001092BA007B
:100210001092BB001092BC000E942C0A0E94FD09A3
:100220006B017C0183E00E94AF06282F30E0D701EC
:10023000C601880F991FAA1FBB1F880F991FAA1FED
:10024000BB1FBC01CD01660F771F881F991F660F6A
:10025000771F881F991F322F222740E050E00E940D
:10026000270BCA01B9010E942C0A6B017C010E9474
:10027000FD096093BD007093BE008093BF00909312
:10028000C0006091BD007091BE008091BF00909150
:10029000C0000E942C0A9B01AC01C701B6010E945C
:1002A0001E0920E030E040E853E40E94BA0A20E052
:1002B00030E040E85FE30E941E090E94FD096CBF28
:1002C0004091B8005091B9006091BA007091BB00A4
:1002D0008091BD009091BE00A091BF00B091C00080
:1002E000481759076A077B0759F78091BC00882394
:1002F000E1F3FF90EF90DF90CF900895CF92DF92DF
:10030000EF92FF92CF93DF936B017C011092BD00BF
:100310001092BE001092BF001092C0001092B80060
:100320001092B9001092BA001092BB001092BC005B
:1003300083E00E94AF06C82FD0E0C701B6010E943B
:100340002C0A0E94FD099B01AC01A0E8BEE30E94BB
:100350004F0B3C2F222740E050E00E94270BCA01A0
:10036000B9010E942C0A6B017C010E94FD09609377
:10037000BD007093BE008093BF009093C000609159
:10038000BD007091BE008091BF009091C0000E949E
:100390002C0A9B01AC01C701B6010E941E0920E096
:1003A00030E040E853E40E94BA0A20E030E040E840
:1003B0005FE30E941E090E94FD096CBF4091B800D6
:1003C0005091B9006091BA007091BB008091BD005E
:1003D0009091BE00A091BF00B091C000481759078E
:1003E0006A077B0759F78091BC008823E1F3DF910E
:1003F000CF91FF90EF90DF90CF9008951F920F92D2
:100400000FB60F9211248F939F93AF93BF93809158
:10041000B8009091B900A091BA00B091BB000196CC
:10042000A11DB11D8093B8009093B900A093BA00AC
:10043000B093BB00BF91AF919F918F910F900FBE72
:100440000F901F9018951F920F920FB60F921124C4
:100450004F935F936F937F938F939F93AF93BF93CC
:100460004091B8005091B9006091BA007091BB0002
:100470008091BD009091BE00A091BF00B091C000DE
:10048000481759076A077B0759F41092B800109271
:10049000B9001092BA001092BB0081E08093BC00BA
:1004A000BF91AF919F918F917F916F915F914F918C
:1004B0000F900FBE0F901F901895CF93DF93982F3A
:1004C000969596959695E82FE770913041F080F0DB
:1004D000923041F0933049F0C0E0D0E00BC0C7E368
:1004E000D0E008C0C4E3D0E005C0C1E3D0E002C062
:1004F000CAE3D0E08E2F90E0FC01E65DFF4F0C9444
:10050000490B888160FB80F9888322C0888160FB69
:1005100081F988831DC0888160FB82F9888318C0B7
:10052000888160FB83F9888313C0888160FB84F92C
:1005300088830EC0888160FB85F9888309C0888123
:1005400060FB86F9888304C0888160FB87F9888313
:10055000DF91CF910895CF93DF93982F969596953D
:100560009695E82FE770913041F080F0923041F09D
:10057000933049F0C0E0D0E00BC0C8E3D0E008C041
:10058000C5E3D0E005C0C2E3D0E002C0CBE3D0E0D9
:100590008E2F90E0FC01EE5CFF4F0C94490B88819C
:1005A00060FB80F9888322C0888160FB81F98883A1
:1005B0001DC0888160FB82F9888318C0888160FB38
:1005C00083F9888313C0888160FB84F988830EC017
:1005D000888160FB85F9888309C0888160FB86F982
:1005E000888304C0888160FB87F98883DF91CF917D
:1005F0000895CF93DF93982F969596959695E82F2B
:10060000E770913041F080F0923041F0933049F042
:10061000C0E0D0E00BC0C8E3D0E008C0C5E3D0E044
:1006200005C0C2E3D0E002C0CBE3D0E08E2F90E063
:10063000FC01E65CFF4F0C94490B8881817091E0CE
:100640008927988180FB90F998834AC08881869594
:10065000817091E08927988180FB91F9988340C04F
:10066000888182FB992790F981E08927988180FB16
:1006700092F9988335C0888183FB992790F981E0AE
:100680008927988180FB93F998832AC08881829575
:10069000817091E08927988180FB90F9988320C030
:1006A000888185FB992790F981E08927988180FBD3
:1006B00095F9988315C0888186FB992790F981E088
:1006C0008927988180FB96F998830AC0888187FBE7
:1006D000992790F981E08927988180FB97F9988381
:1006E000DF91CF910895CF93DF93982F96959695AC
:1006F0009695E82FE770913041F080F0923041F00C
:10070000933049F0C0E0D0E00BC0C6E3D0E008C0B1
:10071000C3E3D0E005C0C0E3D0E002C0C9E3D0E04D
:100720008E2F90E0FC01EE5BFF4F0C94490B88810B
:10073000817020C08881869581701CC0888182FB71
:10074000882780F917C0888183FB882780F912C029
:100750008881829581700EC0888185FB882780F909
:1007600009C0888186FB882780F904C0888187FBBF
:10077000882780F9DF91CF910895813041F028F0EA
:10078000823039F0833039F008956BBB089568BB2F
:10079000089565BB089562BB0895813041F028F04B
:1007A000823039F0833039F008C089B3089586B3B8
:1007B000089583B3089580B3089580E00895CF939A
:1007C000C82F80E00E94CD038F709C2F907F682FF0
:1007D000692B80E00E94BD0360E08BE00E94AB02C9
:1007E00062E070E080E090E00E947E0161E08BE0DA
:1007F0000E94AB0262E070E080E090E00E947E0127
:1008000080E00E94CD0390E1C99F900111248F7078
:10081000682F622B80E00E94BD0360E08BE00E94A5
:10082000AB0262E070E080E090E00E947E0161E057
:100830008BE00E94AB0262E070E080E090E00E94FA
:100840007E01CF910895CF93C82F60E089E00E9488
:10085000AB0260E08AE00E94AB028C2F0E94DF03B3
:10086000CF91089561E084E00E945D0261E085E03F
:100870000E945D0261E086E00E945D0261E087E027
:100880000E945D0261E089E00E945D0261E08AE011
:100890000E945D0261E08BE00E945D0260E08AE000
:1008A0000E94AB0261E08BE00E94AB0264E170E069
:1008B00080E090E00E947E0183E30E94230464E6CE
:1008C00070E080E090E00E94F60082E30E94230442
:1008D00088E20E94230488E00E94230486E00E94AC
:1008E000230481E00E9423048CE00E94230462E040
:1008F00070E080E090E00E947E010895CF93C82FC1
:1009000061E089E00E94AB0260E08AE00E94AB02F5
:100910008C2F0E94DF03CF9108950F931F93CF93E5
:100920008C01C0E003C00E947E04CF5FF801EC0F91
:10093000F11D80818111F7CFCF911F910F91089503
:1009400081E00E942304089561E087E10E945D0236
:10095000089587E10E94F90208950E944F050E94C0
:100960000406FDCFCF93DF9300D000D0CDB7DEB724
:1009700061E08DE10E945D0283E00E9402076091C8
:10098000C3007091C40080E090E00E942C0A20E037
:1009900030E048E452E40E94BA0A9B01AC0160E0F6
:1009A00074E284E79BE40E948B0920E030E040E899
:1009B0005FE30E941E090E94FD0977BD66BD8DE0C0
:1009C00089831A8282E08B8383E08C83CE01019637
:1009D0000E9471080F900F900F900F90DF91CF91B0
:1009E00008958F929F92AF92BF92CF92DF92EF9233
:1009F000FF929B01AC0160E070E084E393E40E940D
:100A00001E0920E030E044E353E40E948B092FE606
:100A100032E143E85AE30E94BA0A9B01AC016FE657
:100A200072E183E09BE30E941E0920E034E244E788
:100A30005BE40E94BA0A4B015C016091C3007091B3
:100A4000C40080E090E00E942C0A6B017C01609160
:100A5000C1007091C2006F5F7F4F80E090E00E9404
:100A60002C0AA70196010E94BA0A9B01AC01C5019C
:100A7000B4010E948B0920E030E048EC52E40E946F
:100A8000BA0AAB01BC0180E00E947F08FF90EF90A2
:100A9000DF90CF90BF90AF909F908F9008950E946D
:100AA000DB000E9472060E94A4040E9432040E948D
:100AB0009D000E94B2040E949A0608950F931F930E
:100AC000CF93DF938C01EB010E94A004C8010E9428
:100AD0008D04CE010E948D04DF91CF911F910F9163
:100AE0000895CF93DF93D62FC72F0E9486060E94CA
:100AF00092068130E1F78D2F0E9486060E949206B1
:100B00008130E1F78C2F0E948606DF91CF91089506
:100B1000CF93DF93EC010E94A90488818F5F8883C3
:100B2000823031F4188260E670E0C9E9D0E004C098
:100B300064E670E0C6E6D0E087E690E00E945E05DD
:100B4000BE0189E00E947105DF91CF9108950E9456
:100B5000A506BC018FE690E00E945E050E949D06FE
:100B6000BC018AEA0E94710508958BE40E94BE00D0
:100B70006DE770E086E890E00E945E056BE470E04F
:100B800085E60E947105089589E10E94BE006CE827
:100B900070E086E890E00E945E0569E170E084E420
:100BA0000E94710508950E94D20067E970E086E80E
:100BB00090E00E945E0560E070E089E90E947105A6
:100BC000089560E070E0CB010E94F1046FE970E0ED
:100BD00086EA90E00E945E0560E070E087E70E9490
:100BE0007105089560E070E084EB92E40E94F104E6
:100BF0006DEA70E086EA90E00E945E056AE570E0CA
:100C000088E80E94710508950E94920690E0FC0118
:100C1000F097E730F105D0F4E65BFF4F0C94490BF9
:100C200084EB90E00E94880508950E94A70508952E
:100C30000E94B50508950E94C40508950E94D30539
:100C400008950E94E10508950E94F2050895FC01AF
:100C500090818DB190FB84F98DB991818DB190FB1C
:100C600085F98DB99281292F23709DB19C7F922B9C
:100C70009DB980818823B1F0813059F561E08CE025
:100C80000E945D0261E08DE00E945D0260E08EE006
:100C90000E945D0261E08FE00E945D028DB1806480
:100CA0008DB9089560E08CE00E945D0261E08CE007
:100CB0000E94AB0260E08DE00E945D0261E08EE088
:100CC0000E945D0260E08FE00E945D028DB1806451
:100CD0008DB908958FB9779BFECF0895779BFECF8E
:100CE0008FB10895CF93DF9300D01F92CDB7DEB7B9
:100CF00019821A8281E08B83CE0101960E94270619
:100D00000F900F900F90DF91CF910895CF93C82F40
:100D10008CE00E9473038111FBCF8C2F0E946A0626
:100D2000CF9108958CE00E9473038111FBCF0E9444
:100D30006E0608950E947F00089580E00E94890059
:100D4000969587959695879508950E949D064AE009
:100D500065EB70E00E94690B85EB90E00895282F09
:100D6000277093B7987F922B93BF833051F018F47C
:100D7000823069F004C0843031F0853031F080E099
:100D8000089580E4089580E0089580E0089588E063
:100D90000895813069F028F0823089F08330B1F015
:100DA0001BC083B7877F83BF83B78F7B83BF14C08C
:100DB00083B7877F83BF83B7806483BF0DC083B74A
:100DC000886083BF83B78F7B83BF06C083B788608B
:100DD00083BF83B7806483BF6370862F8295807FD3
:100DE00063B76F7C682B63BF0895CF93DF93EC01EB
:100DF0008A810E94AF06698188810E94C906DF91BD
:100E0000CF910895282F27709EB5987F922B9EBD75
:100E100021E030E03093C4002093C300833081F0A0
:100E200018F4823031F00895843089F08530B1F0C3
:100E3000089588E090E09093C4008093C3000895E3
:100E400080E490E09093C4008093C300089580E014
:100E500091E09093C4008093C300089580E094E0F3
:100E60009093C4008093C300089590E08F30910563
:100E700008F021C1FC01EF5AFF4F0C94490B8EB5CD
:100E80008F7E8EBD8EB5877F8EBD8FB58D7F8FBDDA
:100E90008FB58E7F8FBD8FEF9FEF9093C2008093B1
:100EA000C10009C18EB58F7E8EBD8EB5877F8EBD88
:100EB0008FB58D7F8FBD8FB581608FBD8FEF90E037
:100EC0009093C2008093C100F6C08EB58F7E8EBD18
:100ED0008EB5877F8EBD8FB582608FBD8FB58E7FBB
:100EE0008FBD8FEF91E09093C2008093C100E3C06B
:100EF0008EB58F7E8EBD8EB5877F8EBD8FB582609D
:100F00008FBD8FB581608FBD8FEF93E09093C2004E
:100F10008093C100D0C08EB58F7E8EBD8EB58860A7
:100F20008EBD8FB58D7F8FBD8FB58E7F8FBD8AB5FE
:100F30009BB59093C2008093C100BDC08EB58F7EDB
:100F40008EBD8EB588608EBD8FB58D7F8FBD8FB500
:100F500081608FBD8FEF90E09093C2008093C100BD
:100F6000AAC08EB58F7E8EBD8EB588608EBD8FB5C2
:100F700082608FBD8FB58E7F8FBD8FEF91E0909394
:100F8000C2008093C10097C08EB58F7E8EBD8EB596
:100F900088608EBD8FB582608FBD8FB581608FBD3B
:100FA0008FEF93E09093C2008093C10084C08EB510
:100FB00080618EBD8EB5877F8EBD8FB58D7F8FBDD5
:100FC0008FB58E7F8FBD86B597B59093C200809305
:100FD000C10071C08EB580618EBD8EB5877F8EBD1C
:100FE0008FB58D7F8FBD8FB581608FBD8AB59BB565
:100FF0009093C2008093C1005EC08EB580618EBDAB
:101000008EB5877F8EBD8FB582608FBD8FB58E7F89
:101010008FBD86B597B59093C2008093C1004BC039
:101020008EB580618EBD8EB5877F8EBD8FB5826097
:101030008FBD8FB581608FBD8AB59BB59093C2007F
:101040008093C10038C08EB580618EBD8EB588603A
:101050008EBD8FB58D7F8FBD8FB58E7F8FBD86B5D1
:1010600097B59093C2008093C10025C08EB5806172
:101070008EBD8EB588608EBD8FB582608FBD8FB5F9
:101080008E7F8FBD86B597B59093C2008093C100C7
:1010900012C08EB580618EBD8EB588608EBD8FB555
:1010A00082608FBD8FB581608FBD8AB59BB59093EF
:1010B000C2008093C100662319F0613051F0089599
:1010C0004295440F440F407C8FB58F73482B4FBD22
:1010D000089543704295407F8FB58F7C482B4FBD5C
:1010E0000895CF93DF93EC014A81698188810E9442
:1010F00035078B810E940207DF91CF910895CF922F
:10110000DF92EF92FF92CF93C82FCB01BA0120E07C
:1011100030E048EC52E40E948B096B017C01609145
:10112000C1007091C2006F5F7F4F80E090E00E942D
:101130002C0AA70196010E94BA0A20E030E040E89C
:101140005FE30E941E090E94FD09CC2319F0C13003
:1011500021F005C07BBD6ABD02C079BD68BDCF91DD
:10116000FF90EF90DF90CF900895282F277095B5CE
:10117000987F922B95BD833051F018F4823069F03E
:1011800004C0843031F0853031F080E0089580E48F
:10119000089580E0089580E0089588E00895813002
:1011A00069F028F0823089F08330B1F01BC085B53A
:1011B000877F85BD85B58F7B85BD14C085B5877F4D
:1011C00085BD85B5806485BD0DC085B5886085BD4C
:1011D00085B58F7B85BD06C085B5886085BD85B525
:1011E000806485BD6370862F8295807F65B56F7C36
:1011F000682B65BD0895CF93DF93EC018A810E942F
:10120000B508698188810E94CF08DF91CF91089548
:1012100020E030E048EC52E40E948B0920E030E00E
:1012200040E853E40E94BA0A20E030E040E85FE37F
:101230000E941E090E94FD0963BD08955058BB27F6
:10124000AA270E9436090C94800A0E94720A38F07C
:101250000E94790A20F039F49F3F19F426F40C9487
:101260006F0A0EF4E095E7FB0C94690AE92F0E94DF
:10127000910A58F3BA17620773078407950720F09D
:1012800079F4A6F50C94B30A0EF4E0950B2EBA2F60
:10129000A02D0B01B90190010C01CA01A00111247C
:1012A000FF27591B99F0593F50F4503E68F11A1628
:1012B000F040A22F232F342F4427585FF3CF4695B9
:1012C00037952795A795F0405395C9F77EF41F16DB
:1012D000BA0B620B730B840BBAF09150A1F0FF0FA5
:1012E000BB1F661F771F881FC2F70EC0BA0F621F91
:1012F000731F841F48F4879577956795B795F79581
:101300009E3F08F0B0CF9395880F08F09927EE0F15
:101310009795879508950E949F090C94800A0E94D2
:10132000790A58F00E94720A40F029F45F3F29F0D0
:101330000C94690A51110C94B40A0C946F0A0E941F
:10134000910A68F39923B1F3552391F3951B550B3B
:10135000BB27AA2762177307840738F09F5F5F4F88
:10136000220F331F441FAA1FA9F335D00E2E3AF0C7
:10137000E0E832D091505040E695001CCAF72BD0DF
:10138000FE2F29D0660F771F881FBB1F2617370730
:101390004807AB07B0E809F0BB0B802DBF01FF2762
:1013A00093585F4F3AF09E3F510578F00C94690ACC
:1013B0000C94B40A5F3FE4F3983ED4F38695779596
:1013C0006795B795F7959F5FC9F7880F911D96951B
:1013D000879597F90895E1E0660F771F881FBB1F77
:1013E000621773078407BA0720F0621B730B840B24
:1013F000BA0BEE1F88F7E09508950E94990A88F0CD
:101400009F5798F0B92F9927B751B0F0E1F0660FC8
:10141000771F881F991F1AF0BA95C9F714C0B13009
:1014200091F00E94B30AB1E008950C94B30A672FBB
:10143000782F8827B85F39F0B93FCCF38695779538
:101440006795B395D9F73EF4909580957095619521
:101450007F4F8F4F9F4F0895E89409C097FB3EF44C
:1014600090958095709561957F4F8F4F9F4F9923F1
:10147000A9F0F92F96E9BB279395F695879577956F
:101480006795B795F111F8CFFAF4BB0F11F460FF2F
:101490001BC06F5F7F4F8F4F9F4F16C0882311F087
:1014A00096E911C0772321F09EE8872F762F05C09B
:1014B000662371F096E8862F70E060E02AF09A9536
:1014C000660F771F881FDAF7880F9695879597F92B
:1014D000089597F99F6780E870E060E008959FEFB6
:1014E00080EC089500240A941616170618060906BB
:1014F000089500240A94121613061406050608958A
:10150000092E0394000C11F4882352F0BB0F40F411
:10151000BF2B11F460FF04C06F5F7F4F8F4F9F4F51
:10152000089557FD9058440F551F59F05F3F71F0D3
:101530004795880F97FB991F61F09F3F79F087953A
:101540000895121613061406551FF2CF4695F1DFC3
:1015500008C0161617061806991FF1CF8695710553
:10156000610508940895E894BB2766277727CB0187
:1015700097F908950E94CD0A0C94800A0E94720A7D
:1015800038F00E94790A20F0952311F00C94690A32
:101590000C946F0A11240C94B40A0E94910A70F3FF
:1015A000959FC1F3950F50E0551F629FF001729F08
:1015B000BB27F00DB11D639FAA27F00DB11DAA1F17
:1015C000649F6627B00DA11D661F829F2227B00D64
:1015D000A11D621F739FB00DA11D621F839FA00DEF
:1015E000611D221F749F3327A00D611D231F849F3F
:1015F000600D211D822F762F6A2F11249F57504096
:101600009AF0F1F088234AF0EE0FFF1FBB1F661F10
:10161000771F881F91505040A9F79E3F510580F0D9
:101620000C94690A0C94B40A5F3FE4F3983ED4F337
:10163000869577956795B795F795E7959F5FC1F77D
:10164000FE2B880F911D9695879597F90895A1E235
:101650001A2EAA1BBB1BFD010DC0AA1FBB1FEE1F2C
:10166000FF1FA217B307E407F50720F0A21BB30B77
:10167000E40BF50B661F771F881F991F1A9469F7F3
:1016800060957095809590959B01AC01BD01CF014F
:101690000895EE0FFF1F0590F491E02D09940E942C
:1016A0005A0BA59F900DB49F900DA49F800D911D86
:1016B00011240895A29FB001B39FC001A39F700D94
:1016C000811D1124911DB29F700D811D1124911D4A
:1016D0000895BB274A3031F4992322F4BDE2909556
:1016E00081959F4F0C94750BBB27FB015527AA27AB
:1016F000880F991FAA1FA41710F0A41B839550519F
:10170000B9F7A05DAA3308F0A95DA193009779F716
:10171000B111B1931192CB010C948E0BDC01FC0141
:10172000672F71917723E1F7329704C07C916D9315
:1017300070836291AE17BF07C8F30895F894FFCF86
:101740004F4646004F6E004C696768743A2000545B
:10175000656D70657261747572653A2000537065CD
:1017600065642055700046616E3A200053706565CF
:101770006420446F776E0053746F7070656400432B
:101780006C6F73656400446F6F723A20004F706530
:041790006E6564001E
:00000001FF
