:100000000C9441000C945E000C945E000C945E0015
:100010000C945E000C945E000C945E000C945E00E8
:100020000C945E000C945E000C94BF010C949A0139
:100030000C945E000C945E000C945E000C945E00C8
:100040000C945E000C945E000C945E000C945E00B8
:100050000C945E001D02220227022C02310236029D
:100060003B0240026B02700275027A027F02840238
:1000700089028E024105440547054A054D05500594
:10008000530511241FBECFE5D8E0DEBFCDBF11E080
:10009000A0E6B0E0E2E9F1E102C005900D92AC30DB
:1000A000B107D9F721E0ACE0B1E001C01D92A53164
:1000B000B207E1F70E949C030C94C7080C9400005F
:1000C000CF93DF9300D01F92CDB7DEB719821A828B
:1000D00083E08B83CE0101960E9496060F900F90CD
:1000E0000F90DF91CF9108950E94AD060895CF93B0
:1000F000DF9300D01F92CDB7DEB719821A8283E05A
:100100008B83CE0101960E942C0689B7816089BF3E
:1001100089B7826089BF78940F900F900F90DF911C
:10012000CF910895CF92DF92EF92FF92109211013A
:1001300010921201109213011092140110920C01EE
:1001400010920D0110920E0110920F0110921001E9
:100150000E9455070E9426076B017C0183E00E94E4
:10016000E605282F30E0D701C601880F991FAA1F86
:10017000BB1F880F991FAA1FBB1FBC01CD01660FB3
:10018000771F881F991F660F771F881F991F322FAF
:10019000222740E050E00E945008CA01B9010E94A5
:1001A00055076B017C010E94260760931101709333
:1001B00012018093130190931401609111017091C9
:1001C000120180911301909114010E9455079B0127
:1001D000AC01C701B6010E94B90620E030E040E85A
:1001E00053E40E94E30720E030E040E85FE30E9430
:1001F000B9060E9426076CBF40910C0150910D0179
:1002000060910E0170910F01809111019091120186
:10021000A0911301B0911401481759076A077B0791
:1002200059F7809110018823E1F3FF90EF90DF9060
:10023000CF900895CF92DF92EF92FF92CF93DF930A
:100240006B017C01109211011092120110921301A6
:100250001092140110920C0110920D0110920E01D7
:1002600010920F011092100183E00E94E605C82F42
:10027000D0E0C701B6010E9455070E9426079B01E6
:10028000AC01A0E8BEE30E9478083C2F222740E0A2
:1002900050E00E945008CA01B9010E9455076B0145
:1002A0007C010E94260760931101709312018093D4
:1002B00013019093140160911101709112018091CA
:1002C0001301909114010E9455079B01AC01C701D5
:1002D000B6010E94B90620E030E040E853E40E94F5
:1002E000E30720E030E040E85FE30E94B9060E94A7
:1002F00026076CBF40910C0150910D0160910E01D9
:1003000070910F018091110190911201A091130140
:10031000B0911401481759076A077B0759F7809174
:1003200010018823E1F3DF91CF91FF90EF90DF90F0
:10033000CF9008951F920F920FB60F9211248F93B2
:100340009F93AF93BF9380910C0190910D01A09169
:100350000E01B0910F010196A11DB11D80930C01FA
:1003600090930D01A0930E01B0930F01BF91AF9137
:100370009F918F910F900FBE0F901F9018951F9215
:100380000F920FB60F9211244F935F936F937F9349
:100390008F939F93AF93BF9340910C0150910D01A8
:1003A00060910E0170910F018091110190911201E5
:1003B000A0911301B0911401481759076A077B07F0
:1003C00059F410920C0110920D0110920E0110922E
:1003D0000F0181E080931001BF91AF919F918F91A8
:1003E0007F916F915F914F910F900FBE0F901F9073
:1003F0001895CF93DF93982F969596959695E82F1D
:10040000E770913041F080F0923041F0933049F044
:10041000C0E0D0E00BC0C7E3D0E008C0C4E3D0E048
:1004200005C0C1E3D0E002C0CAE3D0E08E2F90E067
:10043000FC01E65DFF4F0C947208888160FB80F937
:10044000888322C0888160FB81F988831DC08881F0
:1004500060FB82F9888318C0888160FB83F98883F8
:1004600013C0888160FB84F988830EC0888160FB9B
:1004700085F9888309C0888160FB86F9888304C078
:10048000888160FB87F98883DF91CF910895CF93AE
:10049000DF93982F969596959695E82FE770913073
:1004A00041F080F0923041F0933049F0C0E0D0E06C
:1004B0000BC0C8E3D0E008C0C5E3D0E005C0C2E38C
:1004C000D0E002C0CBE3D0E08E2F90E0FC01EE5CE8
:1004D000FF4F0C947208888160FB80F9888322C0EA
:1004E000888160FB81F988831DC0888160FB82F967
:1004F000888318C0888160FB83F9888313C0888152
:1005000060FB84F988830EC0888160FB85F988834D
:1005100009C0888160FB86F9888304C0888160FBFC
:1005200087F98883DF91CF910895813041F028F0D9
:10053000823039F0833039F008956BBB089568BB81
:10054000089565BB089562BB0895813041F028F09D
:10055000823039F0833039F008C089B3089586B30A
:10056000089583B3089580B3089580E00895CF93EC
:10057000C82F80E00E94A5028F709C2F907F682F6B
:10058000692B80E00E94950260E08BE00E944702A8
:1005900062E070E080E090E00E941A0161E08BE090
:1005A0000E94470262E070E080E090E00E941A0141
:1005B00080E00E94A50290E1C99F900111248F70F4
:1005C000682F622B80E00E94950260E08BE00E9421
:1005D000470262E070E080E090E00E941A0161E072
:1005E0008BE00E94470262E070E080E090E00E94B1
:1005F0001A01CF910895CF93C82F60E089E00E943F
:10060000470260E08AE00E9447028C2F0E94B702F6
:10061000CF91089561E084E00E94F90161E085E0F6
:100620000E94F90161E086E00E94F90161E087E043
:100630000E94F90161E089E00E94F90161E08AE02D
:100640000E94F90161E08BE00E94F90160E08AE01C
:100650000E94470261E08BE00E94470264E170E083
:1006600080E090E00E941A0183E30E94FB0264E6AE
:1006700070E080E090E00E94920082E30E94FB0222
:1006800088E20E94FB0288E00E94FB0286E00E9452
:10069000FB0281E00E94FB028CE00E94FB0262E010
:1006A00070E080E090E00E941A010895CF93C82F77
:1006B00061E089E00E94470260E08AE00E94470210
:1006C0008C2F0E94B702CF9108950F931F93CF9361
:1006D0008C01C0E003C00E945603CF5FF801EC0F0D
:1006E000F11D80818111F7CFCF911F910F91089556
:1006F0000F931F93CF93DF9300D0CDB7DEB78C015C
:1007000080E8898380EC8A83E1E0F0E0EC0FFD1F54
:10071000E60FF11D8081840F0E94FB02C8010E9438
:1007200065030F900F90DF91CF911F910F91089566
:1007300081E00E94FB0208950E94A3030E947400BE
:100740000E940E05FBCF0E9477000E94A2050E9426
:1007500060000E940A030895CF93DF93EC010E948A
:100760009803CE010E946503DF91CF91089540E088
:1007700061E00E94780308950F931F93CF93DF9356
:10078000C82FD62F8FEF1FC061E08C2F0E94BE05AF
:100790008C2F0E94D505D81316C061E08C2F0E94C3
:1007A000BE058C2F0E94D505082F10E061E08C2F2C
:1007B0000E94BE058C2F0E94D50590E0982F8827B7
:1007C000802B912B04C08D13DFCF8FEF9FEFDF9134
:1007D000CF911F910F91089580E690E00E94AC03A5
:1007E00064E670E080E090E00E941A0169E08CE02D
:1007F0000E94BC038636910529F482E790E00E94AE
:10080000B70308958939910521F48EE790E00E949D
:10081000B7030895CF93DF9300D01F92CDB7DEB713
:100820008BE890E00E94AC0364E670E080E090E02A
:100830000E941A016AEA8CE00E94BC034AE0BE01F1
:100840006F5F7F4F0E949208CE0101960E94650360
:10085000CE0101960E94B7030F900F900F90DF9189
:10086000CF910895CF93DF9300D01F92CDB7DEB71D
:100870008CE990E00E94AC0364E670E080E090E0D8
:100880000E941A0165E68CE00E94BC034AE0BE01AA
:100890006F5F7F4F0E9492088DEA90E00E94B7033D
:1008A000CE0101960E9465038AEB90E00E946503E9
:1008B0000F900F900F90DF91CF910895CF93DF931A
:1008C00000D01F92CDB7DEB78CEB90E00E94AC0356
:1008D00064E670E080E090E00E941A0164E48CE03D
:1008E0000E94BC034AE0BE016F5F7F4F0E949208E6
:1008F0008DEA90E00E94B703CE0101960E94650345
:100900008AEB90E00E9465030F900F900F90DF91AB
:10091000CF910895CF93DF9300D01F92CDB7DEB76C
:100920008FEC90E00E94AC0364E670E080E090E021
:100930000E941A0169E98CE00E94BC034AE0BE01F2
:100940006F5F7F4F0E9492088DEA90E00E94B7038C
:10095000CE0101960E9465038AEB90E00E94650338
:100960000F900F900F90DF91CF910895CF93DF9369
:1009700000D01F92CDB7DEB78DED90E00E94AC03A2
:1009800064E670E080E090E00E941A0167E78CE086
:100990000E94BC034AE0BE016F5F7F4F0E94920835
:1009A0008DEE90E00E94B703CE0101960E94650390
:1009B0008BEF90E00E9465030F900F900F90DF91F6
:1009C000CF910895CF93DF9300D01F92CDB7DEB7BC
:1009D0008DEF90E00E94AC0364E670E080E090E070
:1009E0000E941A0168E88CE00E94BC034AE0BE0144
:1009F0006F5F7F4F0E9492088DEE90E00E94B703D8
:100A0000CE0101960E9465038BEF90E00E94650382
:100A10000F900F900F90DF91CF910895CF93E82F13
:100A200080ED8E0F51E0823008F050E031E0E2338B
:100A300009F030E021E0E33309F020E091E0E43315
:100A400009F090E081E0E53309F080E041E0E63331
:100A500009F040E0352B232B922B892B11F44423F2
:100A600021F1CE2F6E2F8CE00E94BE058C2F90E0DE
:100A7000FC01F097E730F105C0F4E65CFF4F0C9401
:100A800072080E94EC0311C00E940A040EC00E946A
:100A900032040BC00E945E0408C00E948A0405C094
:100AA0000E94B60402C00E94E204CF910895FC01A6
:100AB00090818DB190FB84F98DB991818DB190FBBE
:100AC00085F98DB99281292F23709DB19C7F922B3E
:100AD0009DB980818823B1F0813059F561E08CE0C7
:100AE0000E94F90161E08DE00E94F90160E08EE072
:100AF0000E94F90161E08FE00E94F9018DB18064EC
:100B00008DB9089560E08CE00E94F90161E08CE00D
:100B10000E94470260E08DE00E94F90161E08EE0F2
:100B20000E94F90160E08FE00E94F9018DB18064BC
:100B30008DB908958FB9779BFECF0895779BFECF2F
:100B40008FB10895CF93DF9300D01F92CDB7DEB75A
:100B500061E08CE00E94F90161E08CE00E944702B4
:100B600081E089831A828B83CE0101960E9457050A
:100B70000F900F900F90DF91CF910895CF93DF9357
:100B8000C82FD62F60E00E94470264E170E080E049
:100B900090E00E941A018D2F0E949A0561E08C2F2F
:100BA0000E944702DF91CF910895CF93DF93C82F22
:100BB00060E00E9447020E949E05D82F61E08C2FC2
:100BC0000E9447028D2FDF91CF910895282F277023
:100BD00093B7987F922B93BF833051F018F48230F3
:100BE00069F004C0843031F0853031F080E0089540
:100BF00080E4089580E0089580E0089588E00895F5
:100C0000813069F028F0823089F08330B1F01BC068
:100C100083B7877F83BF83B78F7B83BF14C083B7BE
:100C2000877F83BF83B7806483BF0DC083B788602D
:100C300083BF83B78F7B83BF06C083B7886083BFC2
:100C400083B7806483BF6370862F8295807F63B78C
:100C50006F7C682B63BF0895CF93DF93EC018A818B
:100C60000E94E605698188810E940006DF91CF918C
:100C7000089590B5906890BD8370982F9295907F5D
:100C800080B58F7C892B80BD089590B5906890BD0C
:100C900090B580FB93F990BD089590B5906890BD94
:100CA0008230F9F028F4882341F0813081F00895F2
:100CB000833009F1843049F108958AB18B7F8AB974
:100CC00080B58B7F80BD80B58D7F80BD08958AB152
:100CD0008B7F8AB980B58B7F80BD80B5826080BDF7
:100CE00008958AB18B7F8AB980B5846080BD80B554
:100CF0008D7F80BD08958AB18B7F8AB980B584606D
:100D000080BD80B5826080BD08958AB184608AB953
:100D100080B5846080BD80B5826080BD089587E61F
:100D200089B980B58F7780BD10BC0895CF93DF93CC
:100D3000EC018AB180618AB98AB188608AB98881F8
:100D40000E94390689810E9445068A810E944D06CB
:100D50000E948F06DF91CF9108955F9BFECF8CB1EB
:100D60009AB196959170392F20E0A901482BCA01BC
:100D700008955058BB27AA270E94D1060C94A907B2
:100D80000E949B0738F00E94A20720F039F49F3F91
:100D900019F426F40C9498070EF4E095E7FB0C94F4
:100DA0009207E92F0E94BA0758F3BA176207730730
:100DB0008407950720F079F4A6F50C94DC070EF46F
:100DC000E0950B2EBA2FA02D0B01B90190010C015B
:100DD000CA01A0011124FF27591B99F0593F50F473
:100DE000503E68F11A16F040A22F232F342F4427CB
:100DF000585FF3CF469537952795A795F0405395C3
:100E0000C9F77EF41F16BA0B620B730B840BBAF092
:100E10009150A1F0FF0FBB1F661F771F881FC2F7FD
:100E20000EC0BA0F621F731F841F48F48795779511
:100E30006795B795F7959E3F08F0B0CF9395880FCB
:100E400008F09927EE0F9795879508950E94C2079D
:100E500088F09F5798F0B92F9927B751B0F0E1F07B
:100E6000660F771F881F991F1AF0BA95C9F714C02B
:100E7000B13091F00E94DC07B1E008950C94DC07DA
:100E8000672F782F8827B85F39F0B93FCCF3869564
:100E900077956795B395D9F73EF4909580957095C1
:100EA00061957F4F8F4F9F4F0895E89409C097FB3E
:100EB0003EF490958095709561957F4F8F4F9F4F31
:100EC0009923A9F0F92F96E9BB279395F695879575
:100ED00077956795B795F111F8CFFAF4BB0F11F438
:100EE00060FF1BC06F5F7F4F8F4F9F4F16C08823DF
:100EF00011F096E911C0772321F09EE8872F762F15
:100F000005C0662371F096E8862F70E060E02AF055
:100F10009A95660F771F881FDAF7880F9695879541
:100F200097F9089597F99F6780E870E060E0089569
:100F30009FEF80EC089500240A94161617061806F1
:100F40000906089500240A941216130614060506CD
:100F50000895092E0394000C11F4882352F0BB0F5E
:100F600040F4BF2B11F460FF04C06F5F7F4F8F4FC1
:100F70009F4F089557FD9058440F551F59F05F3FFC
:100F800071F04795880F97FB991F61F09F3F79F0AB
:100F900087950895121613061406551FF2CF46952D
:100FA000F1DF08C0161617061806991FF1CF8695AF
:100FB0007105610508940895E894BB276627772793
:100FC000CB0197F908950E94F6070C94A9070E9497
:100FD0009B0738F00E94A20720F0952311F00C9493
:100FE00092070C94980711240C94DD070E94BA070D
:100FF00070F3959FC1F3950F50E0551F629FF0016C
:10100000729FBB27F00DB11D639FAA27F00DB11D84
:10101000AA1F649F6627B00DA11D661F829F22270D
:10102000B00DA11D621F739FB00DA11D621F839F94
:10103000A00D611D221F749F3327A00D611D231F6A
:10104000849F600D211D822F762F6A2F11249F57B8
:1010500050409AF0F1F088234AF0EE0FFF1FBB1FBB
:10106000661F771F881F91505040A9F79E3F51057A
:1010700080F00C9492070C94DD075F3FE4F3983EF8
:10108000D4F3869577956795B795F795E7959F5F24
:10109000C1F7FE2B880F911D9695879597F90895B6
:1010A000A1E21A2EAA1BBB1BFD010DC0AA1FBB1F6C
:1010B000EE1FFF1FA217B307E407F50720F0A21BDE
:1010C000B30BE40BF50B661F771F881F991F1A944B
:1010D00069F760957095809590959B01AC01BD0175
:1010E000CF010895EE0FFF1F0590F491E02D0994B4
:1010F0000E948308A59F900DB49F900DA49F800D22
:10110000911D11240895A29FB001B39FC001A39F18
:10111000700D811D1124911DB29F700D811D112430
:10112000911D0895BB274A3031F4992322F4BDE282
:10113000909581959F4F0C949E08BB27FB015527E6
:10114000AA27880F991FAA1FA41710F0A41B839524
:101150005051B9F7A05DAA3308F0A95DA19300979B
:1011600079F7B111B1931192CB010C94B708DC015E
:10117000FC01672F71917723E1F7329704C07C91CE
:101180006D9370836291AE17BF07C8F30895F8940A
:02119000FFCF8F
:1011920052315F546F67676C655F4C696768743A78
:1011A20020004C69676874204973204F4E004C69D7
:1011B200676874204973204F46460052315F546578
:1011C2006D70657261747572653A200052315F46C6
:1011D200616E5F537065656455503A2000447574C2
:1011E200795F4379636C653D2000250052315F468B
:1011F200616E5F5370656564446F776E3A2000528A
:10120200315F46616E5F53746F703A200052315FF6
:10121200446F6F725F436C6F73653A20005365725F
:10122200766F5F416E676C653D2000640052315FEE
:0C123200446F6F725F4F70656E3A2000D1
:00000001FF
